:060000000A128A11142906
:10000800F000030EF1000B1810200B191C20710EC4
:100018008300F00E700E090003138312061CA00A59
:1000280020088500861CA003200885000B10080006
:1000380003138312FD3081000B11861206138613F9
:1000480072183028F218342872193828F2193C2806
:100058007608870009144028770887008914432800
:1000680078088700861646287908870006174928E1
:100078007A08870086174C280130F20608000330FA
:10008800F20608000630F20608000C30F2060800F6
:06009800F201080008005F
:100200008A010A140F3982073F3406345B344F34B5
:1002100066346D347D3407347F34673477347C340E
:1002200039345E34793471340317831688018901B7
:1002300003138316003085000614861409108910F4
:100240008612061386138113151495140030870047
:100250005B215221622171210313831285018601E2
:1002600087018801A001031383123B21422103135C
:1002700083127721332920080F39F400200E0F391B
:10028000F500080074080021F60075080021F70049
:1002900024080021F80023080021F9002208002189
:1002A000FA0008000313831616149614031383121E
:1002B00006080B100800031383160F138F160F1276
:1002C0000F14080003138316811281110115811484
:1002D00001140313831203138312FD3081000B11E9
:1002E00008008B178B158B160B100B110800A4013F
:1002F0000508A200643022020318A40A0318A20011
:1003000003187A29A3010A3022020318A30A03184A
:0A031000A20003188329031C080053
:04400E00C430FF3F7C
:00000001FF
